{
  "contractName": "PotluckToken",
  "abi": [
    {
      "constant": false,
      "inputs": [
        {
          "name": "_to",
          "type": "address"
        },
        {
          "name": "_tokenId",
          "type": "uint256"
        }
      ],
      "name": "approve",
      "outputs": [],
      "payable": false,
      "stateMutability": "nonpayable",
      "type": "function"
    },
    {
      "constant": true,
      "inputs": [],
      "name": "totalSupply",
      "outputs": [
        {
          "name": "",
          "type": "uint256"
        }
      ],
      "payable": false,
      "stateMutability": "view",
      "type": "function"
    },
    {
      "constant": true,
      "inputs": [
        {
          "name": "_tokenId",
          "type": "uint256"
        }
      ],
      "name": "approvedFor",
      "outputs": [
        {
          "name": "",
          "type": "address"
        }
      ],
      "payable": false,
      "stateMutability": "view",
      "type": "function"
    },
    {
      "constant": true,
      "inputs": [
        {
          "name": "_owner",
          "type": "address"
        }
      ],
      "name": "tokensOf",
      "outputs": [
        {
          "name": "",
          "type": "uint256[]"
        }
      ],
      "payable": false,
      "stateMutability": "view",
      "type": "function"
    },
    {
      "constant": true,
      "inputs": [
        {
          "name": "_tokenId",
          "type": "uint256"
        }
      ],
      "name": "ownerOf",
      "outputs": [
        {
          "name": "",
          "type": "address"
        }
      ],
      "payable": false,
      "stateMutability": "view",
      "type": "function"
    },
    {
      "constant": true,
      "inputs": [
        {
          "name": "_owner",
          "type": "address"
        }
      ],
      "name": "balanceOf",
      "outputs": [
        {
          "name": "",
          "type": "uint256"
        }
      ],
      "payable": false,
      "stateMutability": "view",
      "type": "function"
    },
    {
      "constant": false,
      "inputs": [
        {
          "name": "_to",
          "type": "address"
        },
        {
          "name": "_tokenId",
          "type": "uint256"
        }
      ],
      "name": "transfer",
      "outputs": [],
      "payable": false,
      "stateMutability": "nonpayable",
      "type": "function"
    },
    {
      "constant": false,
      "inputs": [
        {
          "name": "_tokenId",
          "type": "uint256"
        }
      ],
      "name": "takeOwnership",
      "outputs": [],
      "payable": false,
      "stateMutability": "nonpayable",
      "type": "function"
    },
    {
      "anonymous": false,
      "inputs": [
        {
          "indexed": true,
          "name": "_from",
          "type": "address"
        },
        {
          "indexed": true,
          "name": "_to",
          "type": "address"
        },
        {
          "indexed": false,
          "name": "_tokenId",
          "type": "uint256"
        }
      ],
      "name": "Transfer",
      "type": "event"
    },
    {
      "anonymous": false,
      "inputs": [
        {
          "indexed": true,
          "name": "_owner",
          "type": "address"
        },
        {
          "indexed": true,
          "name": "_approved",
          "type": "address"
        },
        {
          "indexed": false,
          "name": "_tokenId",
          "type": "uint256"
        }
      ],
      "name": "Approval",
      "type": "event"
    },
    {
      "constant": true,
      "inputs": [],
      "name": "name",
      "outputs": [
        {
          "name": "",
          "type": "string"
        }
      ],
      "payable": false,
      "stateMutability": "pure",
      "type": "function"
    },
    {
      "constant": true,
      "inputs": [],
      "name": "symbol",
      "outputs": [
        {
          "name": "",
          "type": "string"
        }
      ],
      "payable": false,
      "stateMutability": "pure",
      "type": "function"
    }
  ],
  "bytecode": "0x6060604052341561000f57600080fd5b610fe88061001e6000396000f3006060604052600436106100a4576000357c0100000000000000000000000000000000000000000000000000000000900463ffffffff16806306fdde03146100a9578063095ea7b31461013757806318160ddd146101795780632a6dd48f146101a25780635a3f2672146102055780636352211e1461029357806370a08231146102f657806395d89b4114610343578063a9059cbb146103d1578063b2e6ceeb14610413575b600080fd5b34156100b457600080fd5b6100bc610436565b6040518080602001828103825283818151815260200191508051906020019080838360005b838110156100fc5780820151818401526020810190506100e1565b50505050905090810190601f1680156101295780820380516001836020036101000a031916815260200191505b509250505060405180910390f35b341561014257600080fd5b610177600480803573ffffffffffffffffffffffffffffffffffffffff16906020019091908035906020019091905050610479565b005b341561018457600080fd5b61018c61060c565b6040518082815260200191505060405180910390f35b34156101ad57600080fd5b6101c36004808035906020019091905050610615565b604051808273ffffffffffffffffffffffffffffffffffffffff1673ffffffffffffffffffffffffffffffffffffffff16815260200191505060405180910390f35b341561021057600080fd5b61023c600480803573ffffffffffffffffffffffffffffffffffffffff16906020019091905050610652565b6040518080602001828103825283818151815260200191508051906020019060200280838360005b8381101561027f578082015181840152602081019050610264565b505050509050019250505060405180910390f35b341561029e57600080fd5b6102b460048080359060200190919050506106ef565b604051808273ffffffffffffffffffffffffffffffffffffffff1673ffffffffffffffffffffffffffffffffffffffff16815260200191505060405180910390f35b341561030157600080fd5b61032d600480803573ffffffffffffffffffffffffffffffffffffffff1690602001909190505061076d565b6040518082815260200191505060405180910390f35b341561034e57600080fd5b6103566107b9565b6040518080602001828103825283818151815260200191508051906020019080838360005b8381101561039657808201518184015260208101905061037b565b50505050905090810190601f1680156103c35780820380516001836020036101000a031916815260200191505b509250505060405180910390f35b34156103dc57600080fd5b610411600480803573ffffffffffffffffffffffffffffffffffffffff169060200190919080359060200190919050506107fc565b005b341561041e57600080fd5b610434600480803590602001909190505061084f565b005b61043e610f17565b6040805190810160405280600d81526020017f506f746c75636b20546f6b656e00000000000000000000000000000000000000815250905090565b6000813373ffffffffffffffffffffffffffffffffffffffff1661049c826106ef565b73ffffffffffffffffffffffffffffffffffffffff161415156104be57600080fd5b6104c7836106ef565b91508173ffffffffffffffffffffffffffffffffffffffff168473ffffffffffffffffffffffffffffffffffffffff161415151561050457600080fd5b600061050f84610615565b73ffffffffffffffffffffffffffffffffffffffff16141580610549575060008473ffffffffffffffffffffffffffffffffffffffff1614155b1561060657836002600085815260200190815260200160002060006101000a81548173ffffffffffffffffffffffffffffffffffffffff021916908373ffffffffffffffffffffffffffffffffffffffff1602179055508373ffffffffffffffffffffffffffffffffffffffff168273ffffffffffffffffffffffffffffffffffffffff167f8c5be1e5ebec7d5bd14f71427d1e84f3dd0314c0f7b2291e5b200ac8c7c3b925856040518082815260200191505060405180910390a35b50505050565b60008054905090565b60006002600083815260200190815260200160002060009054906101000a900473ffffffffffffffffffffffffffffffffffffffff169050919050565b61065a610f2b565b600360008373ffffffffffffffffffffffffffffffffffffffff1673ffffffffffffffffffffffffffffffffffffffff1681526020019081526020016000208054806020026020016040519081016040528092919081815260200182805480156106e357602002820191906000526020600020905b8154815260200190600101908083116106cf575b50505050509050919050565b6000806001600084815260200190815260200160002060009054906101000a900473ffffffffffffffffffffffffffffffffffffffff169050600073ffffffffffffffffffffffffffffffffffffffff168173ffffffffffffffffffffffffffffffffffffffff161415151561076457600080fd5b80915050919050565b6000600360008373ffffffffffffffffffffffffffffffffffffffff1673ffffffffffffffffffffffffffffffffffffffff168152602001908152602001600020805490509050919050565b6107c1610f17565b6040805190810160405280600381526020017f504c540000000000000000000000000000000000000000000000000000000000815250905090565b803373ffffffffffffffffffffffffffffffffffffffff1661081d826106ef565b73ffffffffffffffffffffffffffffffffffffffff1614151561083f57600080fd5b61084a33848461087a565b505050565b61085933826109c3565b151561086457600080fd5b610877610870826106ef565b338361087a565b50565b600073ffffffffffffffffffffffffffffffffffffffff168273ffffffffffffffffffffffffffffffffffffffff16141515156108b657600080fd5b6108bf816106ef565b73ffffffffffffffffffffffffffffffffffffffff168273ffffffffffffffffffffffffffffffffffffffff16141515156108f957600080fd5b8273ffffffffffffffffffffffffffffffffffffffff16610919826106ef565b73ffffffffffffffffffffffffffffffffffffffff1614151561093b57600080fd5b6109458382610a04565b61094f8382610aed565b6109598282610d75565b8173ffffffffffffffffffffffffffffffffffffffff168373ffffffffffffffffffffffffffffffffffffffff167fddf252ad1be2c89b69c2b068fc378daa952ba7f163c4a11628f55a4df523b3ef836040518082815260200191505060405180910390a3505050565b60008273ffffffffffffffffffffffffffffffffffffffff166109e583610615565b73ffffffffffffffffffffffffffffffffffffffff1614905092915050565b8173ffffffffffffffffffffffffffffffffffffffff16610a24826106ef565b73ffffffffffffffffffffffffffffffffffffffff16141515610a4657600080fd5b60006002600083815260200190815260200160002060006101000a81548173ffffffffffffffffffffffffffffffffffffffff021916908373ffffffffffffffffffffffffffffffffffffffff16021790555060008273ffffffffffffffffffffffffffffffffffffffff167f8c5be1e5ebec7d5bd14f71427d1e84f3dd0314c0f7b2291e5b200ac8c7c3b925836040518082815260200191505060405180910390a35050565b60008060008473ffffffffffffffffffffffffffffffffffffffff16610b12856106ef565b73ffffffffffffffffffffffffffffffffffffffff16141515610b3457600080fd5b60046000858152602001908152602001600020549250610b666001610b588761076d565b610ee090919063ffffffff16565b9150600360008673ffffffffffffffffffffffffffffffffffffffff1673ffffffffffffffffffffffffffffffffffffffff16815260200190815260200160002082815481101515610bb457fe5b906000526020600020900154905060006001600086815260200190815260200160002060006101000a81548173ffffffffffffffffffffffffffffffffffffffff021916908373ffffffffffffffffffffffffffffffffffffffff16021790555080600360008773ffffffffffffffffffffffffffffffffffffffff1673ffffffffffffffffffffffffffffffffffffffff16815260200190815260200160002084815481101515610c6257fe5b9060005260206000209001819055506000600360008773ffffffffffffffffffffffffffffffffffffffff1673ffffffffffffffffffffffffffffffffffffffff16815260200190815260200160002083815481101515610cbf57fe5b906000526020600020900181905550600360008673ffffffffffffffffffffffffffffffffffffffff1673ffffffffffffffffffffffffffffffffffffffff168152602001908152602001600020805480919060019003610d209190610f3f565b5060006004600086815260200190815260200160002081905550826004600083815260200190815260200160002081905550610d686001600054610ee090919063ffffffff16565b6000819055505050505050565b60008073ffffffffffffffffffffffffffffffffffffffff166001600084815260200190815260200160002060009054906101000a900473ffffffffffffffffffffffffffffffffffffffff1673ffffffffffffffffffffffffffffffffffffffff16141515610de457600080fd5b826001600084815260200190815260200160002060006101000a81548173ffffffffffffffffffffffffffffffffffffffff021916908373ffffffffffffffffffffffffffffffffffffffff160217905550610e3f8361076d565b9050600360008473ffffffffffffffffffffffffffffffffffffffff1673ffffffffffffffffffffffffffffffffffffffff1681526020019081526020016000208054806001018281610e929190610f6b565b916000526020600020900160008490919091505550806004600084815260200190815260200160002081905550610ed56001600054610ef990919063ffffffff16565b600081905550505050565b6000828211151515610eee57fe5b818303905092915050565b6000808284019050838110151515610f0d57fe5b8091505092915050565b602060405190810160405280600081525090565b602060405190810160405280600081525090565b815481835581811511610f6657818360005260206000209182019101610f659190610f97565b5b505050565b815481835581811511610f9257818360005260206000209182019101610f919190610f97565b5b505050565b610fb991905b80821115610fb5576000816000905550600101610f9d565b5090565b905600a165627a7a72305820cc896ebcda33ce6ecc7c71a427cdb598cc54dff4f46419131aa97821fa55c6c90029",
  "source": "pragma solidity ^0.4.18;\r\n\r\nimport \"../../node_modules/zeppelin-solidity/contracts/token/ERC721/ERC721Token.sol\";\r\n\r\ncontract PotluckToken is ERC721Token {\r\n    function name() public pure returns (string) {\r\n        return \"Potluck Token\";\r\n    }\r\n\r\n    function symbol() public pure returns (string) {\r\n        return \"PLT\";\r\n    }\r\n\r\n    // Mapping from token ID to index of token\r\n    mapping(uint256 => uint256) private tokensIndex;\r\n\r\n    // Mapping from networkId to list of approved owners in network\r\n    mapping (uint256 => address[]) private approvedOwners;\r\n\r\n    // Mapping from network ID to index of the approved owners\r\n    mapping(uint256 => uint256) private approvedOwnersIndex;\r\n\r\n    //put metadata into a struct; and store structs in mapping by tokenId\r\n    struct Metadata {\r\n        string itemName;\r\n        string description;\r\n        string iconUrl;\r\n        uint256 id;\r\n    }\r\n\r\n    // Array list of all tokens\r\n    Metadata[] private tokens;\r\n\r\n    function createToken(string itemName, string description, string iconUrl) internal {\r\n        Metadata memory newToken;\r\n        newToken.itemName = itemName;\r\n        newToken.description = description;\r\n        newToken.iconUrl = iconUrl;\r\n\r\n        // Add to tokens array\r\n        tokens.push(newToken);\r\n\r\n        // Get index and store as tokenId\r\n        uint tokenId = tokens.length.sub(1);\r\n        \r\n        _mint(msg.sender, tokenId);\r\n    }\r\n\r\n    function getMetadata(uint256 _tokenId) internal view returns (uint256 tokenId, string itemName, string description, string iconUrl) {\r\n        tokenId = _tokenId;\r\n        itemName = tokens[_tokenId].itemName;\r\n        description = tokens[_tokenId].description;\r\n        iconUrl = tokens[_tokenId].iconUrl;\r\n    }\r\n\r\n    // Mapping from tokenId to link containing metadata\r\n    // mapping(uint256 => string) infoLinks;\r\n\r\n    // function setMetadata(uint256 _tokenId, string infoLink) internal {\r\n    //     require(msg.sender == ownerOf(_tokenId));\r\n    //     infoLinks[_tokenId] = infoLink;\r\n    // }\r\n\r\n    // function metadata(uint256 _tokenId) internal view returns (string) {\r\n    //     return infoLinks[_tokenId];\r\n    // }\r\n\r\n    function addToNetwork(uint256 _networkId) internal {\r\n        approvedOwners[_networkId].push(msg.sender);\r\n    }\r\n\r\n    // Gets all token Metadata by owner\r\n    // returns multidimensional array [[array of owners], [contains arrays of tokens by owner[tokens array by owners], [tokens array by owners], etc.]]\r\n    function getAllTokens() internal view returns (address[], Metadata[][]) {\r\n        uint len = tokens.length;\r\n        address[] memory tokenOwnersArr = new address[](len);\r\n        Metadata[][] memory tokensByOwnerArr = new Metadata[][](len);\r\n        for (uint i = 0; i < tokens.length; i++) {\r\n            address tokenOwner = ownerOf(i);\r\n            tokenOwnersArr[i] = tokenOwner;\r\n            tokensByOwnerArr[i] = getOwnersMetadata(tokenOwner);\r\n        }\r\n        return (tokenOwnersArr, tokensByOwnerArr);\r\n    }\r\n\r\n    // get metadata by owner by looping though tokens of Owner and creating array of metadata\r\n    function getOwnersMetadata(address _owner) internal view returns (Metadata[]) {\r\n        uint256[] memory tokensFromOwner = tokensOf(_owner);\r\n        uint len = tokensFromOwner.length;\r\n        Metadata[] memory ownersMetadata = new Metadata[](len);\r\n        for (uint i = 0; i < tokensFromOwner.length; i++) {\r\n            uint256 tokenId = tokensFromOwner[i];\r\n            Metadata memory currentToken = tokens[tokenId];\r\n            currentToken.id = tokenId;\r\n            ownersMetadata[i] = (currentToken);\r\n        }\r\n        return ownersMetadata;\r\n    }\r\n\r\n    // function getNetworkOwners(uint256 _networkId) internal view returns (address[], uint256[]) {\r\n\r\n    // }\r\n\r\n    // function getAllNetworkTokens(uint256 _networkId) internal view returns (address[], uint256[]) {\r\n    //     address[] tokensOwnerArr;\r\n    //     for (uint i = 0; i < approvedOwners[_networkId].length; i++) {\r\n    //         address owner = approvedOwners[_networkId][i];\r\n    //         uint256[] tokenIdsByOwner = tokensOf(owner);\r\n    //     }\r\n    // }\r\n\r\n}",
  "sourcePath": "C:\\Users\\owner\\potluckv3\\truffle\\contracts\\PotluckToken.sol",
  "compiler": {
    "name": "solc",
    "version": "0.4.19+commit.c4cbbb05.Emscripten.clang"
  },
  "schemaVersion": "2.0.0",
  "updatedAt": "2018-03-27T20:15:17.123Z"
}